8=FIX.4.4|9=114|35=D|34=1|49=CLIENT2|52=20231227-08:14:11.274|56=SIMPLE|11=1|38=9999|40=1|54=1|55=EURUSD|60=20231227-08:14:11.274|10=043|8=FIX.4.4|9=68|35=A|34=2|49=CLIENT2|52=20231227-08:14:11.281|56=SIMPLE|98=0|108=30|10=189|8=FIX.4.4|9=68|35=A|34=3|49=CLIENT2|52=20231227-08:14:13.295|56=SIMPLE|98=0|108=30|10=197|