8=FIX.4.4|9=114|35=D|34=1|49=CLIENT2|52=20231227-08:14:11.274|56=SIMPLE|11=1|38=9999|40=1|54=1|55=EURUSD|60=20231227-08:14:11.274|10=043|8=FIX.4.4|9=68|35=A|34=2|49=CLIENT2|52=20231227-08:14:11.281|56=SIMPLE|98=0|108=30|10=189|8=FIX.4.4|9=68|35=A|34=3|49=CLIENT2|52=20231227-08:14:13.295|56=SIMPLE|98=0|108=30|10=197|8=FIX.4.4|9=114|35=D|34=4|49=CLIENT2|52=20231227-08:50:55.806|56=SIMPLE|11=1|38=9999|40=1|54=1|55=EURUSD|60=20231227-08:50:55.806|10=064|8=FIX.4.4|9=68|35=A|34=5|49=CLIENT2|52=20231227-08:50:55.816|56=SIMPLE|98=0|108=30|10=204|8=FIX.4.4|9=68|35=A|34=6|49=CLIENT2|52=20231227-08:50:57.825|56=SIMPLE|98=0|108=30|10=207|8=FIX.4.4|9=68|35=A|34=7|49=CLIENT2|52=20231227-08:50:59.849|56=SIMPLE|98=0|108=30|10=216|8=FIX.4.4|9=68|35=A|34=8|49=CLIENT2|52=20231227-08:51:01.870|56=SIMPLE|98=0|108=30|10=199|8=FIX.4.4|9=68|35=A|34=9|49=CLIENT2|52=20231227-08:51:03.896|56=SIMPLE|98=0|108=30|10=210|8=FIX.4.4|9=69|35=A|34=10|49=CLIENT2|52=20231227-08:51:05.914|56=SIMPLE|98=0|108=30|10=244|8=FIX.4.4|9=69|35=A|34=11|49=CLIENT2|52=20231227-08:51:07.919|56=SIMPLE|98=0|108=30|10=252|8=FIX.4.4|9=69|35=A|34=12|49=CLIENT2|52=20231227-08:51:09.944|56=SIMPLE|98=0|108=30|10=253|8=FIX.4.4|9=69|35=A|34=13|49=CLIENT2|52=20231227-08:51:11.953|56=SIMPLE|98=0|108=30|10=247|8=FIX.4.4|9=69|35=A|34=14|49=CLIENT2|52=20231227-08:51:13.974|56=SIMPLE|98=0|108=30|10=253|8=FIX.4.4|9=69|35=A|34=15|49=CLIENT2|52=20231227-08:51:15.984|56=SIMPLE|98=0|108=30|10=001|8=FIX.4.4|9=69|35=A|34=16|49=CLIENT2|52=20231227-08:51:17.995|56=SIMPLE|98=0|108=30|10=006|8=FIX.4.4|9=69|35=A|34=17|49=CLIENT2|52=20231227-08:51:20.006|56=SIMPLE|98=0|108=30|10=240|8=FIX.4.4|9=69|35=A|34=18|49=CLIENT2|52=20231227-08:51:22.025|56=SIMPLE|98=0|108=30|10=244|8=FIX.4.4|9=69|35=A|34=19|49=CLIENT2|52=20231227-08:51:24.043|56=SIMPLE|98=0|108=30|10=247|8=FIX.4.4|9=69|35=A|34=20|49=CLIENT2|52=20231227-08:51:26.052|56=SIMPLE|98=0|108=30|10=241|8=FIX.4.4|9=69|35=A|34=21|49=CLIENT2|52=20231227-08:51:28.071|56=SIMPLE|98=0|108=30|10=245|8=FIX.4.4|9=69|35=A|34=22|49=CLIENT2|52=20231227-08:51:30.088|56=SIMPLE|98=0|108=30|10=247|8=FIX.4.4|9=69|35=A|34=23|49=CLIENT2|52=20231227-08:51:32.106|56=SIMPLE|98=0|108=30|10=241|