8=FIX.4.4|9=87|35=A|34=1|49=$senderCompId|52=20231227-07:48:04.979|56=$targetCompId|98=0|108=30|141=Y|10=013|