8=FIX.4.4|9=114|35=D|34=1|49=CLIENT1|52=20231227-08:14:04.269|56=SIMPLE|11=1|38=9999|40=1|54=1|55=EURUSD|60=20231227-08:14:04.257|10=051|8=FIX.4.4|9=68|35=A|34=2|49=CLIENT1|52=20231227-08:14:04.290|56=SIMPLE|98=0|108=30|10=190|8=FIX.4.4|9=68|35=A|34=3|49=CLIENT1|52=20231227-08:14:06.295|56=SIMPLE|98=0|108=30|10=198|8=FIX.4.4|9=68|35=A|34=4|49=CLIENT1|52=20231227-08:14:08.299|56=SIMPLE|98=0|108=30|10=205|8=FIX.4.4|9=68|35=A|34=5|49=CLIENT1|52=20231227-08:14:10.308|56=SIMPLE|98=0|108=30|10=190|8=FIX.4.4|9=68|35=A|34=6|49=CLIENT1|52=20231227-08:14:12.328|56=SIMPLE|98=0|108=30|10=195|8=FIX.4.4|9=68|35=A|34=7|49=CLIENT1|52=20231227-08:14:14.342|56=SIMPLE|98=0|108=30|10=194|8=FIX.4.4|9=114|35=D|34=8|49=CLIENT1|52=20231227-08:15:35.125|56=SIMPLE|11=1|38=9999|40=1|54=1|55=EURUSD|60=20231227-08:15:35.104|10=050|8=FIX.4.4|9=114|35=D|34=9|49=CLIENT1|52=20231227-08:24:12.845|56=SIMPLE|11=1|38=9999|40=1|54=1|55=EURUSD|60=20231227-08:24:12.830|10=056|8=FIX.4.4|9=69|35=A|34=10|49=CLIENT1|52=20231227-08:24:12.871|56=SIMPLE|98=0|108=30|10=243|