8=FIX.4.4|9=114|35=D|34=1|49=CLIENT1|52=20231227-08:14:04.269|56=SIMPLE|11=1|38=9999|40=1|54=1|55=EURUSD|60=20231227-08:14:04.257|10=051|8=FIX.4.4|9=68|35=A|34=2|49=CLIENT1|52=20231227-08:14:04.290|56=SIMPLE|98=0|108=30|10=190|8=FIX.4.4|9=68|35=A|34=3|49=CLIENT1|52=20231227-08:14:06.295|56=SIMPLE|98=0|108=30|10=198|8=FIX.4.4|9=68|35=A|34=4|49=CLIENT1|52=20231227-08:14:08.299|56=SIMPLE|98=0|108=30|10=205|8=FIX.4.4|9=68|35=A|34=5|49=CLIENT1|52=20231227-08:14:10.308|56=SIMPLE|98=0|108=30|10=190|8=FIX.4.4|9=68|35=A|34=6|49=CLIENT1|52=20231227-08:14:12.328|56=SIMPLE|98=0|108=30|10=195|8=FIX.4.4|9=68|35=A|34=7|49=CLIENT1|52=20231227-08:14:14.342|56=SIMPLE|98=0|108=30|10=194|8=FIX.4.4|9=114|35=D|34=8|49=CLIENT1|52=20231227-08:15:35.125|56=SIMPLE|11=1|38=9999|40=1|54=1|55=EURUSD|60=20231227-08:15:35.104|10=050|8=FIX.4.4|9=114|35=D|34=9|49=CLIENT1|52=20231227-08:24:12.845|56=SIMPLE|11=1|38=9999|40=1|54=1|55=EURUSD|60=20231227-08:24:12.830|10=056|8=FIX.4.4|9=69|35=A|34=10|49=CLIENT1|52=20231227-08:24:12.871|56=SIMPLE|98=0|108=30|10=243|8=FIX.4.4|9=115|35=D|34=11|49=CLIENT1|52=20231227-08:46:44.656|56=SIMPLE|11=1|38=9999|40=1|54=1|55=EURUSD|60=20231227-08:46:44.643|10=118|8=FIX.4.4|9=69|35=A|34=12|49=CLIENT1|52=20231227-08:46:44.681|56=SIMPLE|98=0|108=30|10=253|8=FIX.4.4|9=69|35=A|34=13|49=CLIENT1|52=20231227-08:46:46.676|56=SIMPLE|98=0|108=30|10=004|8=FIX.4.4|9=69|35=A|34=14|49=CLIENT1|52=20231227-08:46:48.690|56=SIMPLE|98=0|108=30|10=003|8=FIX.4.4|9=69|35=A|34=15|49=CLIENT1|52=20231227-08:46:50.695|56=SIMPLE|98=0|108=30|10=002|8=FIX.4.4|9=69|35=A|34=16|49=CLIENT1|52=20231227-08:46:52.721|56=SIMPLE|98=0|108=30|10=251|8=FIX.4.4|9=69|35=A|34=17|49=CLIENT1|52=20231227-08:46:54.725|56=SIMPLE|98=0|108=30|10=002|8=FIX.4.4|9=69|35=A|34=18|49=CLIENT1|52=20231227-08:46:56.747|56=SIMPLE|98=0|108=30|10=009|8=FIX.4.4|9=69|35=A|34=19|49=CLIENT1|52=20231227-08:46:58.757|56=SIMPLE|98=0|108=30|10=013|8=FIX.4.4|9=69|35=A|34=20|49=CLIENT1|52=20231227-08:47:00.772|56=SIMPLE|98=0|108=30|10=246|8=FIX.4.4|9=69|35=A|34=21|49=CLIENT1|52=20231227-08:47:02.792|56=SIMPLE|98=0|108=30|10=251|8=FIX.4.4|9=69|35=A|34=22|49=CLIENT1|52=20231227-08:47:04.798|56=SIMPLE|98=0|108=30|10=004|8=FIX.4.4|9=69|35=A|34=23|49=CLIENT1|52=20231227-08:47:06.814|56=SIMPLE|98=0|108=30|10=252|8=FIX.4.4|9=69|35=A|34=24|49=CLIENT1|52=20231227-08:47:08.831|56=SIMPLE|98=0|108=30|10=254|8=FIX.4.4|9=69|35=A|34=25|49=CLIENT1|52=20231227-08:47:10.854|56=SIMPLE|98=0|108=30|10=253|8=FIX.4.4|9=69|35=A|34=26|49=CLIENT1|52=20231227-08:47:12.876|56=SIMPLE|98=0|108=30|10=004|8=FIX.4.4|9=69|35=A|34=27|49=CLIENT1|52=20231227-08:47:14.888|56=SIMPLE|98=0|108=30|10=010|8=FIX.4.4|9=69|35=A|34=28|49=CLIENT1|52=20231227-08:47:16.897|56=SIMPLE|98=0|108=30|10=013|8=FIX.4.4|9=69|35=A|34=29|49=CLIENT1|52=20231227-08:47:18.919|56=SIMPLE|98=0|108=30|10=011|8=FIX.4.4|9=69|35=A|34=30|49=CLIENT1|52=20231227-08:47:20.939|56=SIMPLE|98=0|108=30|10=254|8=FIX.4.4|9=69|35=A|34=31|49=CLIENT1|52=20231227-08:47:22.957|56=SIMPLE|98=0|108=30|10=001|8=FIX.4.4|9=69|35=A|34=32|49=CLIENT1|52=20231227-08:47:24.969|56=SIMPLE|98=0|108=30|10=007|8=FIX.4.4|9=69|35=A|34=33|49=CLIENT1|52=20231227-08:47:26.976|56=SIMPLE|98=0|108=30|10=008|8=FIX.4.4|9=69|35=A|34=34|49=CLIENT1|52=20231227-08:47:28.986|56=SIMPLE|98=0|108=30|10=012|8=FIX.4.4|9=69|35=A|34=35|49=CLIENT1|52=20231227-08:47:31.005|56=SIMPLE|98=0|108=30|10=245|8=FIX.4.4|9=69|35=A|34=36|49=CLIENT1|52=20231227-08:47:33.016|56=SIMPLE|98=0|108=30|10=250|8=FIX.4.4|9=69|35=A|34=37|49=CLIENT1|52=20231227-08:47:35.025|56=SIMPLE|98=0|108=30|10=253|8=FIX.4.4|9=69|35=A|34=38|49=CLIENT1|52=20231227-08:47:37.044|56=SIMPLE|98=0|108=30|10=001|8=FIX.4.4|9=69|35=A|34=39|49=CLIENT1|52=20231227-08:47:39.063|56=SIMPLE|98=0|108=30|10=005|8=FIX.4.4|9=69|35=A|34=40|49=CLIENT1|52=20231227-08:47:41.082|56=SIMPLE|98=0|108=30|10=247|8=FIX.4.4|9=69|35=A|34=41|49=CLIENT1|52=20231227-08:47:43.109|56=SIMPLE|98=0|108=30|10=250|8=FIX.4.4|9=69|35=A|34=42|49=CLIENT1|52=20231227-08:47:45.124|56=SIMPLE|98=0|108=30|10=250|8=FIX.4.4|9=69|35=A|34=43|49=CLIENT1|52=20231227-08:47:47.128|56=SIMPLE|98=0|108=30|10=001|8=FIX.4.4|9=115|35=D|34=44|49=CLIENT1|52=20231227-08:47:59.920|56=SIMPLE|11=1|38=9999|40=1|54=1|55=EURUSD|60=20231227-08:47:59.907|10=135|8=FIX.4.4|9=69|35=A|34=45|49=CLIENT1|52=20231227-08:47:59.946|56=SIMPLE|98=0|108=30|10=014|8=FIX.4.4|9=69|35=A|34=46|49=CLIENT1|52=20231227-08:48:01.936|56=SIMPLE|98=0|108=30|10=002|8=FIX.4.4|9=69|35=A|34=47|49=CLIENT1|52=20231227-08:48:03.956|56=SIMPLE|98=0|108=30|10=007|8=FIX.4.4|9=69|35=A|34=48|49=CLIENT1|52=20231227-08:48:05.978|56=SIMPLE|98=0|108=30|10=014|8=FIX.4.4|9=69|35=A|34=49|49=CLIENT1|52=20231227-08:48:07.988|56=SIMPLE|98=0|108=30|10=018|8=FIX.4.4|9=69|35=A|34=50|49=CLIENT1|52=20231227-08:48:10.019|56=SIMPLE|98=0|108=30|10=245|8=FIX.4.4|9=69|35=A|34=51|49=CLIENT1|52=20231227-08:48:12.024|56=SIMPLE|98=0|108=30|10=244|8=FIX.4.4|9=115|35=D|34=52|49=CLIENT1|52=20231227-08:48:26.046|56=SIMPLE|11=1|38=9999|40=1|54=1|55=EURUSD|60=20231227-08:48:26.032|10=112|8=FIX.4.4|9=69|35=A|34=53|49=CLIENT1|52=20231227-08:48:26.073|56=SIMPLE|98=0|108=30|10=255|8=FIX.4.4|9=69|35=A|34=54|49=CLIENT1|52=20231227-08:48:28.050|56=SIMPLE|98=0|108=30|10=253|8=FIX.4.4|9=69|35=A|34=55|49=CLIENT1|52=20231227-08:48:30.062|56=SIMPLE|98=0|108=30|10=250|8=FIX.4.4|9=69|35=A|34=56|49=CLIENT1|52=20231227-08:48:32.088|56=SIMPLE|98=0|108=30|10=005|8=FIX.4.4|9=69|35=A|34=57|49=CLIENT1|52=20231227-08:48:34.104|56=SIMPLE|98=0|108=30|10=253|8=FIX.4.4|9=69|35=A|34=58|49=CLIENT1|52=20231227-08:48:36.127|56=SIMPLE|98=0|108=30|10=005|8=FIX.4.4|9=69|35=A|34=59|49=CLIENT1|52=20231227-08:48:38.146|56=SIMPLE|98=0|108=30|10=009|8=FIX.4.4|9=69|35=A|34=60|49=CLIENT1|52=20231227-08:48:40.160|56=SIMPLE|98=0|108=30|10=246|8=FIX.4.4|9=69|35=A|34=61|49=CLIENT1|52=20231227-08:48:42.185|56=SIMPLE|98=0|108=30|10=000|8=FIX.4.4|9=69|35=A|34=62|49=CLIENT1|52=20231227-08:48:44.217|56=SIMPLE|98=0|108=30|10=255|8=FIX.4.4|9=69|35=A|34=63|49=CLIENT1|52=20231227-08:48:46.229|56=SIMPLE|98=0|108=30|10=005|8=FIX.4.4|9=69|35=A|34=64|49=CLIENT1|52=20231227-08:48:48.244|56=SIMPLE|98=0|108=30|10=005|8=FIX.4.4|9=69|35=A|34=65|49=CLIENT1|52=20231227-08:48:50.256|56=SIMPLE|98=0|108=30|10=002|8=FIX.4.4|9=69|35=A|34=66|49=CLIENT1|52=20231227-08:48:52.265|56=SIMPLE|98=0|108=30|10=005|8=FIX.4.4|9=69|35=A|34=67|49=CLIENT1|52=20231227-08:48:54.288|56=SIMPLE|98=0|108=30|10=013|8=FIX.4.4|9=69|35=A|34=68|49=CLIENT1|52=20231227-08:48:56.315|56=SIMPLE|98=0|108=30|10=007|8=FIX.4.4|9=69|35=A|34=69|49=CLIENT1|52=20231227-08:48:58.322|56=SIMPLE|98=0|108=30|10=008|8=FIX.4.4|9=69|35=A|34=70|49=CLIENT1|52=20231227-08:49:00.353|56=SIMPLE|98=0|108=30|10=248|8=FIX.4.4|9=69|35=A|34=71|49=CLIENT1|52=20231227-08:49:02.380|56=SIMPLE|98=0|108=30|10=251|8=FIX.4.4|9=69|35=A|34=72|49=CLIENT1|52=20231227-08:49:04.399|56=SIMPLE|98=0|108=30|10=008|8=FIX.4.4|9=69|35=A|34=73|49=CLIENT1|52=20231227-08:49:06.423|56=SIMPLE|98=0|108=30|10=255|8=FIX.4.4|9=69|35=A|34=74|49=CLIENT1|52=20231227-08:49:08.429|56=SIMPLE|98=0|108=30|10=008|8=FIX.4.4|9=69|35=A|34=75|49=CLIENT1|52=20231227-08:49:10.454|56=SIMPLE|98=0|108=30|10=000|8=FIX.4.4|9=69|35=A|34=76|49=CLIENT1|52=20231227-08:49:12.465|56=SIMPLE|98=0|108=30|10=005|8=FIX.4.4|9=69|35=A|34=77|49=CLIENT1|52=20231227-08:49:14.476|56=SIMPLE|98=0|108=30|10=010|8=FIX.4.4|9=69|35=A|34=78|49=CLIENT1|52=20231227-08:49:16.500|56=SIMPLE|98=0|108=30|10=001|8=FIX.4.4|9=69|35=A|34=79|49=CLIENT1|52=20231227-08:49:18.502|56=SIMPLE|98=0|108=30|10=006|8=FIX.4.4|9=69|35=A|34=80|49=CLIENT1|52=20231227-08:49:20.520|56=SIMPLE|98=0|108=30|10=247|8=FIX.4.4|9=69|35=A|34=81|49=CLIENT1|52=20231227-08:49:22.532|56=SIMPLE|98=0|108=30|10=253|8=FIX.4.4|9=69|35=A|34=82|49=CLIENT1|52=20231227-08:49:24.535|56=SIMPLE|98=0|108=30|10=003|8=FIX.4.4|9=69|35=A|34=83|49=CLIENT1|52=20231227-08:49:26.564|56=SIMPLE|98=0|108=30|10=008|8=FIX.4.4|9=69|35=A|34=84|49=CLIENT1|52=20231227-08:49:28.581|56=SIMPLE|98=0|108=30|10=010|8=FIX.4.4|9=69|35=A|34=85|49=CLIENT1|52=20231227-08:49:30.585|56=SIMPLE|98=0|108=30|10=008|8=FIX.4.4|9=69|35=A|34=86|49=CLIENT1|52=20231227-08:49:32.601|56=SIMPLE|98=0|108=30|10=000|8=FIX.4.4|9=69|35=A|34=87|49=CLIENT1|52=20231227-08:49:34.619|56=SIMPLE|98=0|108=30|10=012|8=FIX.4.4|9=69|35=A|34=88|49=CLIENT1|52=20231227-08:49:36.624|56=SIMPLE|98=0|108=30|10=011|8=FIX.4.4|9=69|35=A|34=89|49=CLIENT1|52=20231227-08:49:38.648|56=SIMPLE|98=0|108=30|10=020|8=FIX.4.4|9=69|35=A|34=90|49=CLIENT1|52=20231227-08:49:40.661|56=SIMPLE|98=0|108=30|10=000|8=FIX.4.4|9=69|35=A|34=91|49=CLIENT1|52=20231227-08:49:42.668|56=SIMPLE|98=0|108=30|10=010|8=FIX.4.4|9=69|35=A|34=92|49=CLIENT1|52=20231227-08:49:44.681|56=SIMPLE|98=0|108=30|10=008|8=FIX.4.4|9=69|35=A|34=93|49=CLIENT1|52=20231227-08:49:46.685|56=SIMPLE|98=0|108=30|10=015|8=FIX.4.4|9=69|35=A|34=94|49=CLIENT1|52=20231227-08:49:48.696|56=SIMPLE|98=0|108=30|10=020|8=FIX.4.4|9=69|35=A|34=95|49=CLIENT1|52=20231227-08:49:50.702|56=SIMPLE|98=0|108=30|10=002|8=FIX.4.4|9=69|35=A|34=96|49=CLIENT1|52=20231227-08:49:52.730|56=SIMPLE|98=0|108=30|10=006|8=FIX.4.4|9=69|35=A|34=97|49=CLIENT1|52=20231227-08:49:54.735|56=SIMPLE|98=0|108=30|10=014|8=FIX.4.4|9=69|35=A|34=98|49=CLIENT1|52=20231227-08:49:56.751|56=SIMPLE|98=0|108=30|10=015|8=FIX.4.4|9=69|35=A|34=99|49=CLIENT1|52=20231227-08:49:58.776|56=SIMPLE|98=0|108=30|10=025|8=FIX.4.4|9=70|35=A|34=100|49=CLIENT1|52=20231227-08:50:00.794|56=SIMPLE|98=0|108=30|10=027|8=FIX.4.4|9=70|35=A|34=101|49=CLIENT1|52=20231227-08:50:02.803|56=SIMPLE|98=0|108=30|10=021|8=FIX.4.4|9=70|35=A|34=102|49=CLIENT1|52=20231227-08:50:04.828|56=SIMPLE|98=0|108=30|10=031|8=FIX.4.4|9=70|35=A|34=103|49=CLIENT1|52=20231227-08:50:06.837|56=SIMPLE|98=0|108=30|10=034|8=FIX.4.4|9=70|35=A|34=104|49=CLIENT1|52=20231227-08:50:08.851|56=SIMPLE|98=0|108=30|10=033|8=FIX.4.4|9=70|35=A|34=105|49=CLIENT1|52=20231227-08:50:10.851|56=SIMPLE|98=0|108=30|10=027|8=FIX.4.4|9=70|35=A|34=106|49=CLIENT1|52=20231227-08:50:12.871|56=SIMPLE|98=0|108=30|10=032|8=FIX.4.4|9=70|35=A|34=107|49=CLIENT1|52=20231227-08:50:14.895|56=SIMPLE|98=0|108=30|10=041|8=FIX.4.4|9=70|35=A|34=108|49=CLIENT1|52=20231227-08:50:16.920|56=SIMPLE|98=0|108=30|10=033|8=FIX.4.4|9=70|35=A|34=109|49=CLIENT1|52=20231227-08:50:18.926|56=SIMPLE|98=0|108=30|10=042|8=FIX.4.4|9=70|35=A|34=110|49=CLIENT1|52=20231227-08:50:20.931|56=SIMPLE|98=0|108=30|10=023|8=FIX.4.4|9=70|35=A|34=111|49=CLIENT1|52=20231227-08:50:22.955|56=SIMPLE|98=0|108=30|10=032|8=FIX.4.4|9=70|35=A|34=112|49=CLIENT1|52=20231227-08:50:24.974|56=SIMPLE|98=0|108=30|10=036|8=FIX.4.4|9=70|35=A|34=113|49=CLIENT1|52=20231227-08:50:26.995|56=SIMPLE|98=0|108=30|10=042|8=FIX.4.4|9=70|35=A|34=114|49=CLIENT1|52=20231227-08:50:29.018|56=SIMPLE|98=0|108=30|10=032|8=FIX.4.4|9=70|35=A|34=115|49=CLIENT1|52=20231227-08:50:31.030|56=SIMPLE|98=0|108=30|10=020|8=FIX.4.4|9=70|35=A|34=116|49=CLIENT1|52=20231227-08:50:33.047|56=SIMPLE|98=0|108=30|10=031|8=FIX.4.4|9=70|35=A|34=117|49=CLIENT1|52=20231227-08:50:35.070|56=SIMPLE|98=0|108=30|10=030|8=FIX.4.4|9=70|35=A|34=118|49=CLIENT1|52=20231227-08:50:37.075|56=SIMPLE|98=0|108=30|10=038|8=FIX.4.4|9=70|35=A|34=119|49=CLIENT1|52=20231227-08:50:39.085|56=SIMPLE|98=0|108=30|10=042|8=FIX.4.4|9=70|35=A|34=120|49=CLIENT1|52=20231227-08:50:41.115|56=SIMPLE|98=0|108=30|10=021|8=FIX.4.4|9=70|35=A|34=121|49=CLIENT1|52=20231227-08:50:43.133|56=SIMPLE|98=0|108=30|10=024|8=FIX.4.4|9=70|35=A|34=122|49=CLIENT1|52=20231227-08:50:50.697|56=SIMPLE|98=0|108=30|10=038|8=FIX.4.4|9=70|35=A|34=123|49=CLIENT1|52=20231227-08:50:52.717|56=SIMPLE|98=0|108=30|10=034|8=FIX.4.4|9=70|35=A|34=124|49=CLIENT1|52=20231227-08:50:54.738|56=SIMPLE|98=0|108=30|10=040|8=FIX.4.4|9=70|35=A|34=125|49=CLIENT1|52=20231227-08:50:56.761|56=SIMPLE|98=0|108=30|10=039|8=FIX.4.4|9=70|35=A|34=126|49=CLIENT1|52=20231227-08:50:58.773|56=SIMPLE|98=0|108=30|10=045|8=FIX.4.4|9=70|35=A|34=127|49=CLIENT1|52=20231227-08:51:00.785|56=SIMPLE|98=0|108=30|10=037|8=FIX.4.4|9=70|35=A|34=128|49=CLIENT1|52=20231227-08:51:02.805|56=SIMPLE|98=0|108=30|10=033|8=FIX.4.4|9=70|35=A|34=129|49=CLIENT1|52=20231227-08:51:04.820|56=SIMPLE|98=0|108=30|10=033|8=FIX.4.4|9=70|35=A|34=130|49=CLIENT1|52=20231227-08:51:06.837|56=SIMPLE|98=0|108=30|10=035|8=FIX.4.4|9=70|35=A|34=131|49=CLIENT1|52=20231227-08:51:08.858|56=SIMPLE|98=0|108=30|10=041|8=FIX.4.4|9=70|35=A|34=132|49=CLIENT1|52=20231227-08:51:10.872|56=SIMPLE|98=0|108=30|10=031|8=FIX.4.4|9=70|35=A|34=133|49=CLIENT1|52=20231227-08:51:12.878|56=SIMPLE|98=0|108=30|10=040|8=FIX.4.4|9=70|35=A|34=134|49=CLIENT1|52=20231227-08:51:14.903|56=SIMPLE|98=0|108=30|10=032|8=FIX.4.4|9=70|35=A|34=135|49=CLIENT1|52=20231227-08:51:16.913|56=SIMPLE|98=0|108=30|10=036|8=FIX.4.4|9=70|35=A|34=136|49=CLIENT1|52=20231227-08:51:18.922|56=SIMPLE|98=0|108=30|10=039|8=FIX.4.4|9=70|35=A|34=137|49=CLIENT1|52=20231227-08:51:20.941|56=SIMPLE|98=0|108=30|10=034|8=FIX.4.4|9=70|35=A|34=138|49=CLIENT1|52=20231227-08:51:22.947|56=SIMPLE|98=0|108=30|10=043|8=FIX.4.4|9=70|35=A|34=139|49=CLIENT1|52=20231227-08:51:24.968|56=SIMPLE|98=0|108=30|10=049|8=FIX.4.4|9=70|35=A|34=140|49=CLIENT1|52=20231227-08:51:26.990|56=SIMPLE|98=0|108=30|10=038|8=FIX.4.4|9=70|35=A|34=141|49=CLIENT1|52=20231227-08:51:29.003|56=SIMPLE|98=0|108=30|10=027|8=FIX.4.4|9=70|35=A|34=142|49=CLIENT1|52=20231227-08:51:31.020|56=SIMPLE|98=0|108=30|10=020|8=FIX.4.4|9=116|35=D|34=143|49=CLIENT1|52=20231227-08:51:44.724|56=SIMPLE|11=1|38=9999|40=1|54=1|55=EURUSD|60=20231227-08:51:44.711|10=157|8=FIX.4.4|9=70|35=A|34=144|49=CLIENT1|52=20231227-08:51:44.750|56=SIMPLE|98=0|108=30|10=036|8=FIX.4.4|9=70|35=A|34=145|49=CLIENT1|52=20231227-08:51:46.736|56=SIMPLE|98=0|108=30|10=043|8=FIX.4.4|9=70|35=A|34=146|49=CLIENT1|52=20231227-08:51:48.755|56=SIMPLE|98=0|108=30|10=047|8=FIX.4.4|9=70|35=A|34=147|49=CLIENT1|52=20231227-08:51:50.769|56=SIMPLE|98=0|108=30|10=046|8=FIX.4.4|9=70|35=A|34=148|49=CLIENT1|52=20231227-08:51:52.790|56=SIMPLE|98=0|108=30|10=043|8=FIX.4.4|9=70|35=A|34=149|49=CLIENT1|52=20231227-08:51:54.802|56=SIMPLE|98=0|108=30|10=040|8=FIX.4.4|9=70|35=A|34=150|49=CLIENT1|52=20231227-08:51:56.824|56=SIMPLE|98=0|108=30|10=038|8=FIX.4.4|9=70|35=A|34=151|49=CLIENT1|52=20231227-08:51:58.842|56=SIMPLE|98=0|108=30|10=041|8=FIX.4.4|9=70|35=A|34=152|49=CLIENT1|52=20231227-08:52:00.854|56=SIMPLE|98=0|108=30|10=033|8=FIX.4.4|9=70|35=A|34=153|49=CLIENT1|52=20231227-08:52:02.881|56=SIMPLE|98=0|108=30|10=036|8=FIX.4.4|9=70|35=A|34=154|49=CLIENT1|52=20231227-08:52:04.893|56=SIMPLE|98=0|108=30|10=042|8=FIX.4.4|9=70|35=A|34=155|49=CLIENT1|52=20231227-08:52:06.911|56=SIMPLE|98=0|108=30|10=036|8=FIX.4.4|9=70|35=A|34=156|49=CLIENT1|52=20231227-08:52:08.927|56=SIMPLE|98=0|108=30|10=046|8=FIX.4.4|9=70|35=A|34=157|49=CLIENT1|52=20231227-08:52:10.941|56=SIMPLE|98=0|108=30|10=036|8=FIX.4.4|9=70|35=A|34=158|49=CLIENT1|52=20231227-08:52:12.964|56=SIMPLE|98=0|108=30|10=044|8=FIX.4.4|9=70|35=A|34=159|49=CLIENT1|52=20231227-08:52:14.985|56=SIMPLE|98=0|108=30|10=050|8=FIX.4.4|9=70|35=A|34=160|49=CLIENT1|52=20231227-08:52:17.012|56=SIMPLE|98=0|108=30|10=026|8=FIX.4.4|9=70|35=A|34=161|49=CLIENT1|52=20231227-08:52:19.021|56=SIMPLE|98=0|108=30|10=029|8=FIX.4.4|9=70|35=A|34=162|49=CLIENT1|52=20231227-08:52:21.040|56=SIMPLE|98=0|108=30|10=024|8=FIX.4.4|9=70|35=A|34=163|49=CLIENT1|52=20231227-08:52:23.054|56=SIMPLE|98=0|108=30|10=032|8=FIX.4.4|9=70|35=A|34=164|49=CLIENT1|52=20231227-08:52:25.077|56=SIMPLE|98=0|108=30|10=040|8=FIX.4.4|9=70|35=A|34=165|49=CLIENT1|52=20231227-08:52:27.084|56=SIMPLE|98=0|108=30|10=041|8=FIX.4.4|9=70|35=A|34=166|49=CLIENT1|52=20231227-08:52:29.100|56=SIMPLE|98=0|108=30|10=033|8=FIX.4.4|9=70|35=A|34=167|49=CLIENT1|52=20231227-08:52:31.121|56=SIMPLE|98=0|108=30|10=030|8=FIX.4.4|9=70|35=A|34=168|49=CLIENT1|52=20231227-08:52:33.131|56=SIMPLE|98=0|108=30|10=034|8=FIX.4.4|9=70|35=A|34=169|49=CLIENT1|52=20231227-08:52:35.148|56=SIMPLE|98=0|108=30|10=045|8=FIX.4.4|9=70|35=A|34=170|49=CLIENT1|52=20231227-08:52:37.162|56=SIMPLE|98=0|108=30|10=035|8=FIX.4.4|9=70|35=A|34=171|49=CLIENT1|52=20231227-08:52:39.171|56=SIMPLE|98=0|108=30|10=038|8=FIX.4.4|9=70|35=A|34=172|49=CLIENT1|52=20231227-08:52:41.187|56=SIMPLE|98=0|108=30|10=039|8=FIX.4.4|9=70|35=A|34=173|49=CLIENT1|52=20231227-08:52:43.210|56=SIMPLE|98=0|108=30|10=029|8=FIX.4.4|9=70|35=A|34=174|49=CLIENT1|52=20231227-08:52:45.214|56=SIMPLE|98=0|108=30|10=036|8=FIX.4.4|9=70|35=A|34=175|49=CLIENT1|52=20231227-08:52:47.234|56=SIMPLE|98=0|108=30|10=041|8=FIX.4.4|9=70|35=A|34=176|49=CLIENT1|52=20231227-08:52:49.261|56=SIMPLE|98=0|108=30|10=044|8=FIX.4.4|9=70|35=A|34=177|49=CLIENT1|52=20231227-08:52:51.265|56=SIMPLE|98=0|108=30|10=042|8=FIX.4.4|9=70|35=A|34=178|49=CLIENT1|52=20231227-08:52:53.279|56=SIMPLE|98=0|108=30|10=050|8=FIX.4.4|9=70|35=A|34=179|49=CLIENT1|52=20231227-08:52:55.295|56=SIMPLE|98=0|108=30|10=051|8=FIX.4.4|9=70|35=A|34=180|49=CLIENT1|52=20231227-08:52:57.311|56=SIMPLE|98=0|108=30|10=034|8=FIX.4.4|9=70|35=A|34=181|49=CLIENT1|52=20231227-08:52:59.328|56=SIMPLE|98=0|108=30|10=045|8=FIX.4.4|9=70|35=A|34=182|49=CLIENT1|52=20231227-08:53:01.352|56=SIMPLE|98=0|108=30|10=031|8=FIX.4.4|9=70|35=A|34=183|49=CLIENT1|52=20231227-08:53:03.384|56=SIMPLE|98=0|108=30|10=039|8=FIX.4.4|9=70|35=A|34=184|49=CLIENT1|52=20231227-08:53:05.404|56=SIMPLE|98=0|108=30|10=035|8=FIX.4.4|9=70|35=A|34=185|49=CLIENT1|52=20231227-08:53:07.428|56=SIMPLE|98=0|108=30|10=044|8=FIX.4.4|9=70|35=A|34=186|49=CLIENT1|52=20231227-08:53:09.444|56=SIMPLE|98=0|108=30|10=045|8=FIX.4.4|9=70|35=A|34=187|49=CLIENT1|52=20231227-08:53:11.456|56=SIMPLE|98=0|108=30|10=042|8=FIX.4.4|9=70|35=A|34=188|49=CLIENT1|52=20231227-08:53:13.474|56=SIMPLE|98=0|108=30|10=045|8=FIX.4.4|9=70|35=A|34=189|49=CLIENT1|52=20231227-08:53:15.481|56=SIMPLE|98=0|108=30|10=046|8=FIX.4.4|9=70|35=A|34=190|49=CLIENT1|52=20231227-08:53:17.496|56=SIMPLE|98=0|108=30|10=046|8=FIX.4.4|9=70|35=A|34=191|49=CLIENT1|52=20231227-08:53:19.516|56=SIMPLE|98=0|108=30|10=042|8=FIX.4.4|9=70|35=A|34=192|49=CLIENT1|52=20231227-08:53:21.540|56=SIMPLE|98=0|108=30|10=033|8=FIX.4.4|9=116|35=D|34=193|49=CLIENT1|52=20231227-08:53:56.794|56=SIMPLE|11=1|38=9999|40=1|54=1|55=EURUSD|60=20231227-08:53:56.780|10=185|8=FIX.4.4|9=70|35=A|34=194|49=CLIENT1|52=20231227-08:53:56.820|56=SIMPLE|98=0|108=30|10=044|8=FIX.4.4|9=116|35=D|34=195|49=CLIENT1|52=20231227-08:55:18.736|56=SIMPLE|11=1|38=9999|40=1|54=1|55=EURUSD|60=20231227-08:55:18.721|10=178|8=FIX.4.4|9=70|35=A|34=196|49=CLIENT1|52=20231227-08:55:18.762|56=SIMPLE|98=0|108=30|10=051|