8=FIX.4.4|9=119|35=D|34=1|49=1|52=20231227-09:17:00.296|56=SIMPLE|11=my_custom_id|38=9999|40=1|54=1|55=EURUSD|60=20231227-09:17:00.283|10=083|8=FIX.4.4|9=62|35=A|34=2|49=1|52=20231227-09:17:00.332|56=SIMPLE|98=0|108=30|10=246|